:020000020000FC
:1000000000C008E00EBF0FEF0DBF09D015D00FEFF5
:10001000802E00272CD00130E9F781D08FC000E07E
:1000200004B90FE305B908E107B907E208B900E030
:100030000AB90CEE0BB9089510E003E01093C50067
:100040000093C40008E10093C10006E00093C200E1
:1000500008951091C00015FFFCCF0093C6000895CD
:10006000B1E0A0E00D91F5DF0030E1F708951091C7
:10007000C00017FFFCCF0091C6000895B1E0A0E2D8
:10008000F6DF0D930030E1F70895FEB7EDB7B381C9
:10009000A481D1E0C0E0F999FECFB2BDA1BD119617
:1000A000F89A00B509930030B1F7FEBFEDBF08958F
:1000B000FEB7EDB7B381A481D1E0C0E2F999FECFDC
:1000C000B2BDA1BD1196099100BDFA9AF99A00300E
:1000D000A9F7FEBFEDBF0895339A6AD02FC048E05C
:1000E000D42202E00D0DB5DFD3FC339AC0DF60D01F
:1000F00025C048E0D42203E00D0DABDF033069F0EA
:10010000339AB5DF0F3FE9F7B9DF10E000E00F9356
:100110001F93CEDF1F910F9102D04AD00FC00F93D3
:1001200005E097DFA4DF10E000E00F931F93ADDF41
:100130001F910F9195DF9BDF0F91089599244FE355
:1001400050ECA3B0A4225A255825952A47E258ED31
:10015000B6B0DB2CB4225B255825952A4CEE53E132
:10016000C9B0C4225C255825952A992039F3B1FEDF
:10017000B3CFA4FEB4CFC5FEBCCF04E06ADF77DF07
:100180004FE2A42245E2B4224CECC422D3FC339AC1
:1001900048E0D422D8240A2D5CDF0B2D5ADF0C2D29
:1001A00058DF0D2D56DF00E054DF61DF01D0C6CFF0
:1001B0002CE039E349E74A95F1F73A95E1F72A95BA
:0C01C000D1F700C0222733274427089500
:00000001FF
